{
  "transactions": [
    {
      "hash": "0xd0fea67cb95d9b3a5ee9cce4833a9c9faa23e2cba6d13e5143997c699392aeba",
      "transactionType": "CALL",
      "contractName": "BasicNFT",
      "contractAddress": "0x241389602D99c79bf740698dEa2F30a492A7C733",
      "function": "mintNft(string)",
      "arguments": [
        "ipfs://bafybeig37ioir76s7mg5oobetncojcm3c3hxasyd4rvid4jqhy4gkaheg4/?filename=0-PUG.json"
      ],
      "transaction": {
        "type": "0x02",
        "from": "0x0dd58dadd6fe624962e8107b8b26d7cc0747bc11",
        "to": "0x241389602d99c79bf740698dea2f30a492a7c733",
        "gas": "0x3d623",
        "value": "0x0",
        "data": "0xda86f4a900000000000000000000000000000000000000000000000000000000000000200000000000000000000000000000000000000000000000000000000000000057697066733a2f2f62616679626569673337696f6972373673376d67356f6f6265746e636f6a636d3363336878617379643472766964346a71687934676b61686567342f3f66696c656e616d653d302d5055472e6a736f6e000000000000000000",
        "nonce": "0xb8",
        "accessList": []
      },
      "additionalContracts": [],
      "isFixedGasLimit": false
    }
  ],
  "receipts": [
    {
      "transactionHash": "0xd0fea67cb95d9b3a5ee9cce4833a9c9faa23e2cba6d13e5143997c699392aeba",
      "transactionIndex": "0x2",
      "blockHash": "0x31d03b68b54d0b19feb17c6d434ec276b845f004e5dbe665e61ff03a552a66b4",
      "blockNumber": "0x46e7e3",
      "from": "0x0DD58dAdD6fe624962e8107B8B26d7cC0747BC11",
      "to": "0x241389602D99c79bf740698dEa2F30a492A7C733",
      "cumulativeGasUsed": "0xae245",
      "gasUsed": "0x2c70e",
      "contractAddress": null,
      "logs": [
        {
          "address": "0x241389602D99c79bf740698dEa2F30a492A7C733",
          "topics": [
            "0xddf252ad1be2c89b69c2b068fc378daa952ba7f163c4a11628f55a4df523b3ef",
            "0x0000000000000000000000000000000000000000000000000000000000000000",
            "0x0000000000000000000000000dd58dadd6fe624962e8107b8b26d7cc0747bc11",
            "0x0000000000000000000000000000000000000000000000000000000000000000"
          ],
          "data": "0x",
          "blockHash": "0x31d03b68b54d0b19feb17c6d434ec276b845f004e5dbe665e61ff03a552a66b4",
          "blockNumber": "0x46e7e3",
          "transactionHash": "0xd0fea67cb95d9b3a5ee9cce4833a9c9faa23e2cba6d13e5143997c699392aeba",
          "transactionIndex": "0x2",
          "logIndex": "0xb",
          "removed": false
        }
      ],
      "status": "0x1",
      "logsBloom": "0x00000000000000000800000000000000000000000000000000002000000000000000000000000000000000000000000000000000000080000000000000000000000000000000000000000008000000000000000100000000000000000000000000000000020000000000000000000800000000000000000000000010000000000000000000000000200000000000000000000000000000000000000000000000000000000000000000000000000000000000000000000000000000000000000000000002000000000000000000000000000000000000000000004000000020000000000000000000000000000000000000000000000000000000000000000000",
      "type": "0x2",
      "effectiveGasPrice": "0xb2d05e1e"
    }
  ],
  "libraries": [],
  "pending": [],
  "returns": {},
  "timestamp": 1699349871,
  "chain": 11155111,
  "multi": false,
  "commit": null
}