{
  "transactions": [
    {
      "hash": "0x13119717287a62b2841866395333f7f55a37394fda6e481c424796bd3f75512d",
      "transactionType": "CALL",
      "contractName": "BasicNFT",
      "contractAddress": "0x5Cb8c564689002c032bD110C981c761A86022Fb1",
      "function": "mintNft(string)",
      "arguments": [
        "https://ipfs.io/ipfs/QmYucP65bEBgqcf5g68RmVem4mG5cDwdNLoAth6A52AABs?filename=metadata.json"
      ],
      "transaction": {
        "type": "0x02",
        "from": "0x0dd58dadd6fe624962e8107b8b26d7cc0747bc11",
        "to": "0x5cb8c564689002c032bd110c981c761a86022fb1",
        "gas": "0x4101f",
        "value": "0x0",
        "data": "0xda86f4a90000000000000000000000000000000000000000000000000000000000000020000000000000000000000000000000000000000000000000000000000000005a68747470733a2f2f697066732e696f2f697066732f516d5975635036356245426771636635673638526d56656d346d4735634477644e4c6f41746836413532414142733f66696c656e616d653d6d657461646174612e6a736f6e000000000000",
        "nonce": "0xb5",
        "accessList": []
      },
      "additionalContracts": [],
      "isFixedGasLimit": false
    }
  ],
  "receipts": [
    {
      "transactionHash": "0x13119717287a62b2841866395333f7f55a37394fda6e481c424796bd3f75512d",
      "transactionIndex": "0x4",
      "blockHash": "0xe8f90c91dadf43a0847f87e14fa81836c7641e044d3f6751e4160936803a6720",
      "blockNumber": "0x46e700",
      "from": "0x0DD58dAdD6fe624962e8107B8B26d7cC0747BC11",
      "to": "0x5Cb8c564689002c032bD110C981c761A86022Fb1",
      "cumulativeGasUsed": "0x141884",
      "gasUsed": "0x2c732",
      "contractAddress": null,
      "logs": [
        {
          "address": "0x5Cb8c564689002c032bD110C981c761A86022Fb1",
          "topics": [
            "0xddf252ad1be2c89b69c2b068fc378daa952ba7f163c4a11628f55a4df523b3ef",
            "0x0000000000000000000000000000000000000000000000000000000000000000",
            "0x0000000000000000000000000dd58dadd6fe624962e8107b8b26d7cc0747bc11",
            "0x0000000000000000000000000000000000000000000000000000000000000000"
          ],
          "data": "0x",
          "blockHash": "0xe8f90c91dadf43a0847f87e14fa81836c7641e044d3f6751e4160936803a6720",
          "blockNumber": "0x46e700",
          "transactionHash": "0x13119717287a62b2841866395333f7f55a37394fda6e481c424796bd3f75512d",
          "transactionIndex": "0x4",
          "logIndex": "0x6",
          "removed": false
        }
      ],
      "status": "0x1",
      "logsBloom": "0x00000000000000000800000000000000000000000000000000000000000000000000000000000000000000000000000000000000000000000000000000000000000000000000000000000008000000000000000100000000000000000000000000000000020000000000000000000800000000000000000000200010000000000000000000004000200000000000000000000000000000000000000000000000000000000000000000000000000000000000000000000000000000000000000000000002000000000000000000000000000000080000000000000000000020000000000000000000000000000000000000000000000000000000000000000000",
      "type": "0x2",
      "effectiveGasPrice": "0xb2d05e11"
    }
  ],
  "libraries": [],
  "pending": [],
  "returns": {},
  "timestamp": 1699346667,
  "chain": 11155111,
  "multi": false,
  "commit": null
}