{
  "transactions": [
    {
      "hash": "0xd3171c643d41473427384faf7a3b46a9be57fd78d89dd90e7e9b2bf963cd7146",
      "transactionType": "CALL",
      "contractName": "BasicNFT",
      "contractAddress": "0x5Cb8c564689002c032bD110C981c761A86022Fb1",
      "function": "mintNft(string)",
      "arguments": [
        "https://ipfs.io/ipfs/QmYucP65bEBgqcf5g68RmVem4mG5cDwdNLoAth6A52AABs?filename=metadata.json"
      ],
      "transaction": {
        "type": "0x02",
        "from": "0x0dd58dadd6fe624962e8107b8b26d7cc0747bc11",
        "to": "0x5cb8c564689002c032bd110c981c761a86022fb1",
        "gas": "0x34cbd",
        "value": "0x0",
        "data": "0xda86f4a90000000000000000000000000000000000000000000000000000000000000020000000000000000000000000000000000000000000000000000000000000005a68747470733a2f2f697066732e696f2f697066732f516d5975635036356245426771636635673638526d56656d346d4735634477644e4c6f41746836413532414142733f66696c656e616d653d6d657461646174612e6a736f6e000000000000",
        "nonce": "0xb6",
        "accessList": []
      },
      "additionalContracts": [],
      "isFixedGasLimit": false
    }
  ],
  "receipts": [
    {
      "transactionHash": "0xd3171c643d41473427384faf7a3b46a9be57fd78d89dd90e7e9b2bf963cd7146",
      "transactionIndex": "0x6",
      "blockHash": "0xa6de2b3bf55e0d98d34a0624d765ba22a81a70c322c2489dff78226465834443",
      "blockNumber": "0x46e7b0",
      "from": "0x0DD58dAdD6fe624962e8107B8B26d7cC0747BC11",
      "to": "0x5Cb8c564689002c032bD110C981c761A86022Fb1",
      "cumulativeGasUsed": "0xc034f",
      "gasUsed": "0x2419a",
      "contractAddress": null,
      "logs": [
        {
          "address": "0x5Cb8c564689002c032bD110C981c761A86022Fb1",
          "topics": [
            "0xddf252ad1be2c89b69c2b068fc378daa952ba7f163c4a11628f55a4df523b3ef",
            "0x0000000000000000000000000000000000000000000000000000000000000000",
            "0x0000000000000000000000000dd58dadd6fe624962e8107b8b26d7cc0747bc11",
            "0x0000000000000000000000000000000000000000000000000000000000000001"
          ],
          "data": "0x",
          "blockHash": "0xa6de2b3bf55e0d98d34a0624d765ba22a81a70c322c2489dff78226465834443",
          "blockNumber": "0x46e7b0",
          "transactionHash": "0xd3171c643d41473427384faf7a3b46a9be57fd78d89dd90e7e9b2bf963cd7146",
          "transactionIndex": "0x6",
          "logIndex": "0xa",
          "removed": false
        }
      ],
      "status": "0x1",
      "logsBloom": "0x00000000000000000800000000000000000000000000000000000000000000000000000000000000000000000000000000000000000000000000000000040000000000000000000000000008000000000000000100040000000000000000000000000000020000000000000000000800000000000000000000200010000000000000000000004000200000000000000000000000000000000000000000000000000000000000000000000000000000000000000000000000000000000000000000000002000000000000000000000000000000080000000000000000000060000000000000000000000000000000000000000000000000000000000000000000",
      "type": "0x2",
      "effectiveGasPrice": "0xb2d05e0d"
    }
  ],
  "libraries": [],
  "pending": [],
  "returns": {},
  "timestamp": 1699349165,
  "chain": 11155111,
  "multi": false,
  "commit": null
}